{"abi":[{"type":"constructor","inputs":[{"name":"candidates_","type":"string[]","internalType":"string[]"},{"name":"initialOwner","type":"address","internalType":"address"}],"stateMutability":"nonpayable"},{"type":"fallback","stateMutability":"payable"},{"type":"receive","stateMutability":"payable"},{"type":"function","name":"candidates","inputs":[],"outputs":[{"name":"","type":"string[]","internalType":"string[]"}],"stateMutability":"view"},{"type":"function","name":"candidatesCount","inputs":[],"outputs":[{"name":"","type":"uint256","internalType":"uint256"}],"stateMutability":"view"},{"type":"function","name":"closeVoting","inputs":[],"outputs":[],"stateMutability":"nonpayable"},{"type":"function","name":"getResults","inputs":[],"outputs":[{"name":"counts","type":"uint256[]","internalType":"uint256[]"}],"stateMutability":"view"},{"type":"function","name":"hasVoted","inputs":[{"name":"","type":"address","internalType":"address"}],"outputs":[{"name":"","type":"bool","internalType":"bool"}],"stateMutability":"view"},{"type":"function","name":"openVoting","inputs":[],"outputs":[],"stateMutability":"nonpayable"},{"type":"function","name":"owner","inputs":[],"outputs":[{"name":"","type":"address","internalType":"address"}],"stateMutability":"view"},{"type":"function","name":"renounceOwnership","inputs":[],"outputs":[],"stateMutability":"nonpayable"},{"type":"function","name":"transferOwnership","inputs":[{"name":"newOwner","type":"address","internalType":"address"}],"outputs":[],"stateMutability":"nonpayable"},{"type":"function","name":"vote","inputs":[{"name":"candidateIndex","type":"uint256","internalType":"uint256"}],"outputs":[],"stateMutability":"nonpayable"},{"type":"function","name":"votesCount","inputs":[{"name":"","type":"uint256","internalType":"uint256"}],"outputs":[{"name":"","type":"uint256","internalType":"uint256"}],"stateMutability":"view"},{"type":"function","name":"votingOpen","inputs":[],"outputs":[{"name":"","type":"bool","internalType":"bool"}],"stateMutability":"view"},{"type":"event","name":"OwnershipTransferred","inputs":[{"name":"previousOwner","type":"address","indexed":true,"internalType":"address"},{"name":"newOwner","type":"address","indexed":true,"internalType":"address"}],"anonymous":false},{"type":"event","name":"Voted","inputs":[{"name":"voter","type":"address","indexed":true,"internalType":"address"},{"name":"candidateIndex","type":"uint256","indexed":true,"internalType":"uint256"}],"anonymous":false},{"type":"event","name":"VotingClosed","inputs":[],"anonymous":false},{"type":"event","name":"VotingOpened","inputs":[],"anonymous":false},{"type":"error","name":"AlreadyVoted","inputs":[]},{"type":"error","name":"ErrVotingClosed","inputs":[]},{"type":"error","name":"ErrVotingOpen","inputs":[]},{"type":"error","name":"InvalidCandidate","inputs":[]},{"type":"error","name":"InvalidCandidatesArray","inputs":[]},{"type":"error","name":"OwnableInvalidOwner","inputs":[{"name":"owner","type":"address","internalType":"address"}]},{"type":"error","name":"OwnableUnauthorizedAccount","inputs":[{"name":"account","type":"address","internalType":"address"}]}],"bytecode":{"object":"0x608060405234801562000010575f80fd5b5060405162000cc438038062000cc4833981016040819052620000339162000267565b806001600160a01b0381166200006257604051631e4fbdf760e01b81525f600482015260240160405180910390fd5b6200006d81620000e5565b50600282511015620000925760405163077bbe2560e21b815260040160405180910390fd5b8151620000a790600190602085019062000134565b506004805460ff191660011790556040517fa737faa632a36c00ccb4220893426e922f9442f1cab67acd8301f88a596d4abc905f90a1505062000508565b5f80546001600160a01b038381166001600160a01b0319831681178455604051919092169283917f8be0079c531659141344cd1fd0a4f28419497f9722a3daafe3b4186f6b6457e09190a35050565b828054828255905f5260205f209081019282156200017d579160200282015b828111156200017d57825182906200016c90826200043c565b509160200191906001019062000153565b506200018b9291506200018f565b5090565b808211156200018b575f620001a58282620001af565b506001016200018f565b508054620001bd90620003b2565b5f825580601f10620001cd575050565b601f0160209004905f5260205f2090810190620001eb9190620001ee565b50565b5b808211156200018b575f8155600101620001ef565b634e487b7160e01b5f52604160045260245ffd5b604051601f8201601f191681016001600160401b038111828210171562000243576200024362000204565b604052919050565b80516001600160a01b038116811462000262575f80fd5b919050565b5f8060408084860312156200027a575f80fd5b83516001600160401b038082111562000291575f80fd5b8186019150601f87601f840112620002a7575f80fd5b8251602083821115620002be57620002be62000204565b8160051b620002cf82820162000218565b928352858101820192828101908c851115620002e9575f80fd5b83880192505b84831015620003915782518781111562000307575f80fd5b8801603f81018e1362000318575f80fd5b84810151888111156200032f576200032f62000204565b62000342818901601f1916870162000218565b8181528f8c83850101111562000356575f80fd5b5f5b8281101562000375578381018d0151828201890152870162000358565b505f9181018701919091528352509183019190830190620002ef565b9950620003a39150508982016200024b565b96505050505050509250929050565b600181811c90821680620003c757607f821691505b602082108103620003e657634e487b7160e01b5f52602260045260245ffd5b50919050565b601f8211156200043757805f5260205f20601f840160051c81016020851015620004135750805b601f840160051c820191505b8181101562000434575f81556001016200041f565b50505b505050565b81516001600160401b0381111562000458576200045862000204565b6200047081620004698454620003b2565b84620003ec565b602080601f831160018114620004a6575f84156200048e5750858301515b5f19600386901b1c1916600185901b17855562000500565b5f85815260208120601f198616915b82811015620004d657888601518255948401946001909101908401620004b5565b5085821015620004f457878501515f19600388901b60f8161c191681555b505060018460011b0185555b505050505050565b6107ae80620005165f395ff3fe6080604052600436106100a8575f3560e01c8063715018a611610062578063715018a6146101a45780638da5cb5b146101b8578063a95824b4146101de578063affc0670146101f7578063c631b2921461020b578063f2fde38b1461021f575f80fd5b80630121b93f146100b557806309eef43e146100d65780632d35a8a2146101195780634717f97c1461013757806350a6491a146101585780636f0470aa14610183575f80fd5b366100b1575f80fd5b5f80fd5b3480156100c0575f80fd5b506100d46100cf366004610604565b61023e565b005b3480156100e1575f80fd5b506101046100f036600461061b565b60036020525f908152604090205460ff1681565b60405190151581526020015b60405180910390f35b348015610124575f80fd5b506001545b604051908152602001610110565b348015610142575f80fd5b5061014b61030f565b6040516101109190610648565b348015610163575f80fd5b50610129610172366004610604565b60026020525f908152604090205481565b34801561018e575f80fd5b5061019761039e565b604051610110919061068b565b3480156101af575f80fd5b506100d4610472565b3480156101c3575f80fd5b505f546040516001600160a01b039091168152602001610110565b3480156101e9575f80fd5b506004546101049060ff1681565b348015610202575f80fd5b506100d4610485565b348015610216575f80fd5b506100d46104e8565b34801561022a575f80fd5b506100d461023936600461061b565b610547565b60045460ff166102615760405163ae942f4d60e01b815260040160405180910390fd5b335f9081526003602052604090205460ff161561029157604051637c9a1cf960e01b815260040160405180910390fd5b60015481106102b35760405163e66ea08f60e01b815260040160405180910390fd5b335f818152600360209081526040808320805460ff1916600190811790915585845260029092528083208054909201909155518392917f4d99b957a2bc29a30ebd96a7be8e68fe50a3c701db28a91436490b7d53870ca491a350565b6001546060908067ffffffffffffffff81111561032e5761032e610718565b604051908082528060200260200182016040528015610357578160200160208202803683370190505b5091505f5b81811015610399575f8181526002602052604090205483518490839081106103865761038661072c565b602090810291909101015260010161035c565b505090565b60606001805480602002602001604051908101604052809291908181526020015f905b82821015610469578382905f5260205f200180546103de90610740565b80601f016020809104026020016040519081016040528092919081815260200182805461040a90610740565b80156104555780601f1061042c57610100808354040283529160200191610455565b820191905f5260205f20905b81548152906001019060200180831161043857829003601f168201915b5050505050815260200190600101906103c1565b50505050905090565b61047a610589565b6104835f6105b5565b565b61048d610589565b60045460ff16156104b15760405163a04f3ccf60e01b815260040160405180910390fd5b6004805460ff191660011790556040517fa737faa632a36c00ccb4220893426e922f9442f1cab67acd8301f88a596d4abc905f90a1565b6104f0610589565b60045460ff166105135760405163ae942f4d60e01b815260040160405180910390fd5b6004805460ff191690556040517f66b6cb4a09abc3bf1cacc3c67420258856ffdad0deba9078cbd1658957b50218905f90a1565b61054f610589565b6001600160a01b03811661057d57604051631e4fbdf760e01b81525f60048201526024015b60405180910390fd5b610586816105b5565b50565b5f546001600160a01b031633146104835760405163118cdaa760e01b8152336004820152602401610574565b5f80546001600160a01b038381166001600160a01b0319831681178455604051919092169283917f8be0079c531659141344cd1fd0a4f28419497f9722a3daafe3b4186f6b6457e09190a35050565b5f60208284031215610614575f80fd5b5035919050565b5f6020828403121561062b575f80fd5b81356001600160a01b0381168114610641575f80fd5b9392505050565b602080825282518282018190525f9190848201906040850190845b8181101561067f57835183529284019291840191600101610663565b50909695505050505050565b5f602080830181845280855180835260408601915060408160051b87010192508387015f5b8281101561070b57878503603f19018452815180518087525f5b818110156106e5578281018901518882018a015288016106ca565b505f878201890152601f01601f19169095018601945092850192908501906001016106b0565b5092979650505050505050565b634e487b7160e01b5f52604160045260245ffd5b634e487b7160e01b5f52603260045260245ffd5b600181811c9082168061075457607f821691505b60208210810361077257634e487b7160e01b5f52602260045260245ffd5b5091905056fea2646970667358221220146f80524acecc86faaa496a9592226d4865c55d54936be7020600b4cb24bfb764736f6c63430008180033","linkReferences":{}},"methodIdentifiers":{"candidates()":"6f0470aa","candidatesCount()":"2d35a8a2","closeVoting()":"c631b292","getResults()":"4717f97c","hasVoted(address)":"09eef43e","openVoting()":"affc0670","owner()":"8da5cb5b","renounceOwnership()":"715018a6","transferOwnership(address)":"f2fde38b","vote(uint256)":"0121b93f","votesCount(uint256)":"50a6491a","votingOpen()":"a95824b4"},"id":0}